:100000000C9449060C948D060C948D060C948D0668
:100010000C948D060C948D060C948D060C948D0614
:100020000C948D060C948D060C94480E0C941A0FAB
:100030000C944B1E0C948D060C948D060C948D061E
:100040000C948D060C948D060C948D060C948D06E4
:100050000C948D060C94BE1E0C948D060C948D068B
:100060000C948D060C948D060C948D060C948D06C4
:100070000C948D060C948D060C948D060C948D06B4
:100080000C948D060C948D060C948D060C948D06A4
:100090000C948D060C948D060C948D060C948D0694
:1000A0000C948D060C948D060C948D067F0FA10F79
:1000B0008C10A10F8C10E30F06108C105B106E10CB
:1000C000311431145F145F14BB14F7145217521714
:1000D0000F15521706160616C216D61652174017D7
:1000E000F1A2F1A100F03502260227022F02300210
:1000F0002B343637131C090A06150F2A2904120857
:10010000180C070B1711162DE133140D0E1B0510DB
:100110001A191D28E0E2E3C00000002CC1E600E44B
:10012000013A3B3C3D0101A952AA382E013E3F4015
:1001300041010150514F013101424344450101AC9D
:10014000B0AB0101010101010000000101C2000189
:10015000C31E1F20212223242526382E01C4C52F8B
:10016000300101212223013101C6C7C4C501271E68
:100170001F200101010101010000000127C200014F
:100180000A002530313662003A200025303258000E
:100190000A722F63203031323334353637383941E3
:1001A00042434445460A000A002530325800626F37
:1001B000756E6365213A20004B6579626F617264E8
:1001C0002073746172742E0A0055534220636F6E5F
:1001D000666967757265642E0A000D0A696E697436
:1001E0000A005B445D005B435D0010034D00690045
:1001F0006E006900560061006E00000018034500A3
:10020000760061006E0020005300610069006C0000
:100210006500720000000403090409028D00050155
:1002200000A03209040000010301010009211101AD
:1002300000012240000705810308000A09040100AB
:100240000103010200092111010001224D000705EF
:10025000820308000A0904020001030000000921CA
:10026000110100012236000705830308000A090472
:1002700003000203000000092111010001222200F5
:100280000705840320000107050403200001090479
:1002900004000103000000092111010001223900BE
:1002A000070585032000011201100100000008AEBF
:1002B000FE448803000102000105010906A10105B1
:1002C0000719E029E7150025019508750181020548
:1002D000081901290595057501910295017503918C
:1002E000010507190029F71500250195F875018109
:1002F00002C00631FF0974A1010975150026FF002F
:100300009520750881020976150026FF0095207555
:10031000089102C005010980A1018502168100260D
:10032000B7001A81002AB700751095018100C00539
:100330000C0901A1018503160100269C021A010087
:100340002A9C02751095018100C005010902A101D6
:100350000901A100050919012905150025019505C7
:10036000750181029501750381010501093009318B
:100370001581257F95027508810609381581257F2D
:10038000950175088106050C0A38021581257F95AF
:100390000175088106C0C005010906A101050719FC
:1003A000E029E71500250195087501810295017581
:1003B0000881010508190129059505750191029526
:1003C00001750391010507190029FF150026FF009B
:1003D000950675088100C0636F6E73756D65723A1E
:1003E00020253034580A0073797374656D3A2025DE
:1003F0003034580A000A002530325820006B6579E5
:10040000626F6172643A20004C45443A20253032D4
:10041000580A0064656C5F6B65795F6269743A20A5
:1004200063616E27742064656C3A20253032580A67
:10043000006164645F6B65795F6269743A2063612F
:100440006E2774206164643A20253032580A0064B3
:100450006F6E652E0A00626F6F746D61676963204D
:100460007363616E3A202E2E2E2000290A00257516
:10047000002F002575005D280025640020002564FC
:1004800000200025640020002564007C0025303217
:1004900058006D6F7573656B6579205B62746E7C57
:1004A000782079207620685D287265702F61636CF2
:1004B000293A205B006D6B5F776865656C5F7469D6
:1004C0006D655F746F5F6D6178203D2025640A0063
:1004D0006D6B5F776865656C5F6D61785F73706584
:1004E0006564203D2025640A006D6B5F74696D654D
:1004F0005F746F5F6D6178203D2025640A006D6B2D
:100500005F6D61785F7370656564203D2025640AC6
:10051000006D6B5F696E74657276616C203D20259D
:10052000640A006D6B5F64656C6179203D20256411
:100530000A006D6B5F776865656C5F74696D655FF8
:10054000746F5F6D6178203D2025640A006D6B5FDC
:10055000776865656C5F6D61785F73706565642051
:100560003D2025640A006D6B5F74696D655F746F73
:100570005F6D6178203D2025640A006D6B5F6D61C1
:10058000785F7370656564203D2025640A006D6B9B
:100590005F696E74657276616C203D2025640A0087
:1005A0006D6B5F64656C6179203D2025640A000AEB
:1005B00000257500363A20776865656C5F74696D53
:1005C000655F746F5F6D61783A20000A00257500E1
:1005D000353A20776865656C5F6D61785F7370652B
:1005E00065643A20000A00257500343A2074696D6C
:1005F000655F746F5F6D61783A20000A00257500B1
:10060000333A206D61785F73706565643A20000A43
:1006100000257500323A20696E74657276616C2827
:100620006D73293A20000A00257500313A2064656F
:100630006C6179282A31306D73293A20000A092D1E
:100640002056616C756573202D0A004D3E004D25C6
:10065000643E20003F007365742064656661756CBC
:10066000740A00433E200077686572652064656CFB
:1006700074613A20637572736F723D25642C207724
:100680006865656C3D25640A5365652068747470FF
:100690003A2F2F656E2E77696B6970656469612EDC
:1006A0006F72672F77696B692F4D6F7573655F6B1D
:1006B0006579730A000A092D204D6F7573656B65A6
:1006C00079202D0A4553432F713A09717569740ACF
:1006D000313A0964656C6179282A31306D73290AD1
:1006E000323A09696E74657276616C286D73290AF5
:1006F000333A096D61785F73706565640A343A094D
:1007000074696D655F746F5F6D61780A353A09775A
:100710006865656C5F6D61785F73706565640A36E6
:100720003A09776865656C5F74696D655F746F5FC2
:100730006D61780A0A703A097072696E7420766188
:100740006C7565730A643A09736574206465666143
:10075000756C74730A75703A092B310A646F776E81
:100760003A092D310A706775703A092B31300A70D9
:1007700067646F776E3A092D31300A0A73706565C8
:1007800064203D2064656C7461202A206D61785F6F
:100790007370656564202A20287265706561742015
:1007A0002F2074696D655F746F5F6D6178290A0031
:1007B0003F004D3E2000433E20004C25640A000AC5
:1007C000092D20436F6E736F6C65202D0A455343CE
:1007D0002F713A09717569740A6D3A096D6F7573F5
:1007E000656B65790A000A092D204D6167696320F0
:1007F0002D0A643A0964656275670A783A09646586
:10080000627567206D61747269780A6B3A09646574
:10081000627567206B6579626F6172640A6D3A096F
:100820006465627567206D6F7573650A763A09763F
:10083000657273696F6E0A733A09737461747573C4
:100840000A633A09636F6E736F6C65206D6F646540
:100850000A302D343A096C61796572302D3428469E
:1008600031302D4634290A506175733A09626F6F31
:10087000746C6F616465720A653A09656570726FC0
:100880006D0A6E3A094E4B524F0A000A0025750058
:100890002E6C6576656C3A20000A002575002E6581
:1008A0006E61626C653A20000A00253032580062A1
:1008B00061636B6C696768745F636F6E6669672EEE
:1008C0007261773A20000A002575002E6E6B726FF8
:1008D0003A20000A002575002E737761705F62610F
:1008E000636B736C6173685F6261636B7370616388
:1008F000653A20000A002575002E737761705F67E6
:10090000726176655F6573633A20000A00257500A1
:100910002E6E6F5F6775693A20000A002575002EFC
:10092000737761705F72616C745F726775693A208A
:10093000000A002575002E737761705F6C616C741E
:100940005F6C6775693A20000A002575002E6361A7
:1009500070736C6F636B5F746F5F636F6E74726FD5
:100960006C3A20000A002575002E737761705F6372
:100970006F6E74726F6C5F636170736C6F636B3AF0
:1009800020000A0025303258006B65796D61705F78
:10099000636F6E6669672E7261773A20000A0025E0
:1009A00075002E6D6F7573653A20000A002575007D
:1009B0002E6B6579626F6172643A20000A002575BA
:1009C000002E6D61747269783A20000A0025750066
:1009D0002E656E61626C653A20000A00253032583F
:1009E0000064656275675F636F6E6669672E72612A
:1009F000773A20000A0025750064656661756C749D
:100A00005F6C617965723A20003F004E4B524F3A5D
:100A1000206F66660A004E4B524F3A206F6E0A00F6
:100A200074696D65725F72656164333228293A209A
:100A30002530346C580A006B6579626F6172645FAF
:100A40006E6B726F3A2025580A006B6579626F6190
:100A500072645F69646C653A2025580A006B657999
:100A6000626F6172645F70726F746F636F6C3A2053
:100A700025580A00686F73745F6B6579626F6172E5
:100A8000645F6C65647328293A2025580A000A09B6
:100A90002D20537461747573202D0A004743433A27
:100AA00020342E382E31204156522D4C4942433AA3
:100AB00020312E382E3073766E204156525F4152CF
:100AC00043483A20617672350A004F5054494F4EE0
:100AD000533A204C55464120424F4F544D414749CF
:100AE00043204D4F5553454B45592045585452418D
:100AF0004B455920434F4E534F4C4520434F4D4D8E
:100B0000414E44204E4B524F20343039360A004279
:100B100055494C443A20363437663939642D646976
:100B2000727479202832303A31333A3532205365A5
:100B3000702031302032303137290A005649443A8A
:100B400020307846454145284576616E20536169DD
:100B50006C657229205049443A2030783838343452
:100B6000284D696E6956616E29205645523A2030EB
:100B700078303030330A00444553433A206B65796E
:100B8000626F617264206669726D7761726520665A
:100B90006F72204D696E6956616E0A000A092D2038
:100BA00056657273696F6E202D0A000A6D6F75733A
:100BB000653A206F66660A000A6D6F7573653A20A4
:100BC0006F6E0A000A6B6579626F6172643A206F1A
:100BD00066660A000A6B6579626F6172643A206F1B
:100BE0006E0A000A6D61747269783A206F66660A4F
:100BF000000A6D61747269783A206F6E0A000A64A7
:100C0000656275673A206F6E0A000A6465627567EF
:100C10003A206F66660A000A0A626F6F746C6F6131
:100C20006465722E2E2E2000433E20006565636FA2
:100C30006E6669673A0A006261636B6C6967687423
:100C400020737465703A2025750A006261636B6CCD
:100C50006967687420746F67676C653A2025750A48
:100C6000006261636B6C69676874206465637265B8
:100C70006173653A2025750A006261636B6C696770
:100C8000687420696E6372656173653A2025750A20
:100C9000000011241FBECFEFDAE0DEBFCDBF04B6E7
:100CA00003FE24C08091020290910302A0910402ED
:100CB000B09105028730904BA740B04BB9F4109229
:100CC000020210920302109204021092050214BE56
:100CD00084B7877F84BF88E10FB6F8948093600063
:100CE000109260000FBEE0E0F8E3099511E0A0E08B
:100CF000B1E0E6E1F9E502C005900D92A833B10735
:100D0000D9F722E0A8E3B1E001C01D92A230B207FA
:100D1000E1F70E947B0B0C94892C0C940000FF934C
:100D2000EF93E0913801F0913901309709F009957E
:100D3000EF91FF910895FC018591803011F0EFDF74
:100D4000FBCF0895FF27E0E230E247FF0CC041955A
:100D500097FF09C0EDE26095709580959095611DB3
:100D6000711D811D911D27FF02C0219530E350E2C6
:100D7000AA27660F771F881F991FAA1FA41710F0B4
:100D8000A41B63955A95A9F7AA3008F0A95FA05D46
:100D9000AF93F395611571058105910541F7ED322A
:100DA00011F4EF93F395F21718F43F93F395FBCFFB
:100DB0008F91B5DFFA95E1F70895E991F991859161
:100DC000803021F0853219F0AADFF9CF089520E0B4
:100DD000E89455915532C1F3503311F4689455910C
:100DE0005A3348F4505390F3220F022E220F220F51
:100DF000200D250FF4CF0EF421958991999153364A
:100E000019F3533729F1533559F1BC018827992734
:100E1000E8945C3621F489919991689455915436FF
:100E200039F446EF7EF077FF0DC08FEF9FEF0AC0D9
:100E300055374AE039F0583540E121F0523642E06A
:100E400009F00895FF93EF937DDFEF91FF91B7CF06
:100E5000FF93EF93FC0181918030B9F360DFFBCF0A
:100E6000FF93EF9368DFF1CFDF93CF93CDB7DEB77A
:100E70002596A3DFCF91DF91089561110DC00E94E7
:100E800073172FEF84E39CE0215080409040E1F7FE
:100E900000C000000C94E31E089525982D988AB197
:100EA0008F768AB98BB18F768BB987988F98089592
:100EB00085B7806885BF85B7806885BF0E944D076C
:100EC00080B38C7880BB81B3836781BB8AB183791F
:100ED0008AB98BB18C668BB984B1877A84B985B1B4
:100EE000886585B9109243011092420110923B012E
:100EF00010923A01109245011092440110923D0166
:100F000010923C01109247011092460110923F014D
:100F100010923E0110924901109248011092410135
:100F2000109240010895BF92CF92DF92EF92FF920C
:100F30000F931F93CF93DF93CAE3D1E0D12CCC243E
:100F4000C39485E0B82E99EAE92E91E0F92E82E06B
:100F5000D81661F093E0D91661F081E0D81619F047
:100F6000579A5F9808C0259A2D9805C0879A8F9840
:100F700002C0549A5C9890EA9A95F1F789B18695E7
:100F800086958C25082F017010E04B9B03C040E034
:100F900050E002C042E050E09A01202B312B4D9BE3
:100FA00003C040E050E002C044E050E0422B532B2D
:100FB0004E9B03C020E030E002C028E030E0242B4C
:100FC000352B1C9B03C080E090E002C080E190E0E4
:100FD000822B932B1E9B03C040E050E002C040E2F6
:100FE00050E0482B592B7E9B03C020E030E002C02C
:100FF00020E430E0242B352B7D9B03C080E090E083
:1010000002C080E890E0822B932B7C9B03C060E0C1
:1010100070E002C060E071E0862B972B799B03C0E3
:1010200040E050E002C040E052E0842B952B789BDA
:1010300003C020E030E002C020E034E0822B932B9C
:101040001B9B03C020E030E002C020E038E0822B90
:10105000932B288139812817390741F19983888397
:1010600080910001882301F18091E20180FF04C09A
:101070008EEA91E00E949B068091E20180FF0CC005
:10108000809100011F928F93FF92EF920E9434078C
:101090000F900F900F900F908091E20180FF04C09D
:1010A00087EA91E00E949B06B09200010E944D07E2
:1010B000D394229684E0D8124ACF809100018823ED
:1010C00061F1815080930001882339F08FE99FE01E
:1010D0000197F1F700C0000020C080913A01909183
:1010E0003B01909343018093420180913C01909198
:1010F0003D01909345018093440180913E01909180
:101100003F01909347018093460180914001909167
:101110004101909349018093480181E0DF91CF9193
:101120001F910F91FF90EF90DF90CF90BF900895A7
:10113000E82FF0E0EE0FFF1FEE5BFE4F8081918104
:101140000895CF92DF92EF92FF920F931F93CF9368
:10115000DF9380E991E00E949B0642E4E42E41E0A7
:10116000F42EC0E0D0E05BE8C52E51E0D52E02E8B9
:1011700011E0DF93CF93DF92CF920E94340788E88B
:1011800091E00E949B06F701819191917F010E945D
:10119000DB1D9F938F931F930F930E94340780E86A
:1011A00091E00E949B0621968DB79EB708960FB6D8
:1011B000F8949EBF0FBE8DBFC430D105D1F6DF912C
:1011C000CF911F910F91FF90EF90DF90CF900895F6
:1011D000279A882311F02F9A08952F98089581FF58
:1011E00002C0229A01C022982A98089580916E0127
:1011F00008959FB7F89410924D019FBF9091F70109
:10120000943009F058C09091E9009F702091EC0053
:1012100020FF02C020E801C020E0292B94E0909339
:10122000E9009091EB0090FF43C09091EE0097FF92
:101230003FC090914A01992321F09091E80095FFD9
:1012400037C010924A0196E03091E80035FD15C094
:101250003091F701343061F53091EB0035FD28C055
:10126000915021F481E080934A0122C0EFE9FFE030
:101270003197F1F700C00000E7CF8093F100809133
:10128000E80085FD0AC08091E80080FFFCCF8091D6
:10129000E8008E778093E80006C08FB7F89491E05D
:1012A00090934D018FBF2F702093E90080E0089547
:1012B0002F702093E9008FEF0895CF93DF9300D034
:1012C0001F92CDB7DEB72091F701243019F523E046
:1012D00029839B838A832093E9008FEF9091E80014
:1012E000815095FD06C095ED9A95F1F700008111AA
:1012F000F5CF8091E80085FF0DC040E050E063E04D
:1013000070E0CE0101960E943B0C8091E8008E7740
:101310008093E8000F900F900F90DF91CF91089588
:10132000CF93DF9300D01F92CDB7DEB72091F701A6
:10133000243021F522E029839B838A8383E08093F4
:10134000E9008FEF9091E800815095FD06C095ED82
:101350009A95F1F700008111F5CF8091E80085FFA3
:101360000DC040E050E063E070E0CE0101960E94C5
:101370003B0C8091E8008E778093E8000F900F90EF
:101380000F90DF91CF9108952091F7012430F1F46F
:1013900022E02093E9002FEF3091E800215035FD45
:1013A00006C035ED3A95F1F700002111F5CF2091F7
:1013B000E80025FF0BC040E050E065E070E00E94CF
:1013C0003B0C8091E8008E778093E8000895CF93DE
:1013D000DF93EC018091F701843009F047C08091E0
:1013E0000B018823E1F080910C018823C1F085E096
:1013F0008093E9008FEF9091E800815095FD06C041
:1014000095E19A95F1F700008111F5CF8091E80000
:1014100085FF2CC040E050E060E270E017C081E042
:101420008093E9008FEF9091E800815095FD06C010
:1014300095ED9A95F1F700008111F5CF8091E800C4
:1014400085FF14C040E050E068E070E0CE010E94EB
:101450003B0C8091E8008E778093E80080E2FE01EB
:10146000AEE4B1E001900D928A95E1F7DF91CF9162
:10147000089586EE91E00E949B068091F60181110D
:1014800009C00E94CD0D0E942A0E8091E200846066
:101490008093E200089582EE91E00E949B061092F4
:1014A000F6010895089580914B018F5F80934B0161
:1014B00062E30E941E2C911135C010924B01809165
:1014C0004D01882379F18091F701843049F58091AD
:1014D000E9008F709091EC0090FF02C090E801C08D
:1014E00090E0982B84E08093E9008091EB0080FFEE
:1014F00014C08091EE0087FF10C08091E80085FF46
:1015000003C01092F100F9CF8091E80080FF05C080
:101510008091E8008E778093E8009F709093E900B7
:1015200010924D01089542E061EC81E00E94470D68
:1015300042E061EC82E00E94470D42E061EC83E012
:101540000E94470D42E261EC84E00E94470D42E2B6
:1015500061EC85E00C94470D8091F901833009F42A
:1015600055C030F4813071F0823009F48EC0089596
:101570008A3009F47AC08B3009F460C0893009F0F0
:101580009CC020C08091F801813A09F096C08091FA
:10159000E800877F8093E8008091FC019091FD0135
:1015A000892B21F060E080E090E003C060E28EE4EF
:1015B00091E070E00E94840C8091E8008B7780932A
:1015C000E80008958091F801813209F076C0809199
:1015D000FC019091FD01009719F0049709F06DC08E
:1015E0008091E800877F8093E8008091E80082FD89
:1015F00005C08091F7018111F8CF5FC08091F100A3
:1016000080936E018091E8008B7753C08091F80140
:10161000813A09F052C08091FC019091FD01892B23
:1016200009F04BC08091E800877F8093E8008091AB
:10163000E80080FFFCCF80910B0136C08091F8015B
:101640008132D9F58091FC019091FD01892BA9F59A
:101650008091E800877F8093E8000E947C0D809154
:10166000FA0180930B010C9473178091F801813279
:1016700021F58091E800877F8093E8000E947C0D2F
:101680008091FB0180936F0108958091F801813A68
:10169000A1F48091E800877F8093E8008091E800C2
:1016A00080FFFCCF80916F018093F1008091E80072
:1016B0008E778093E8000C947C0D0895089508952A
:1016C00080916E0180934C0110926E0180E00E9427
:1016D000EF080E943E120C9473170C94600B0E944A
:1016E0000A1E8091F501882329F00E94301E811185
:1016F0000C94250C089584B7877F84BF88E10FB6CA
:10170000F89480936000109260000FBE90E080E833
:101710000FB6F89480936100909361000FBE89EF3B
:1017200098E00E94C41D8AED91E00E949B060E94F1
:101730005E0B0E9461110E94CD0D0E942A0E8091C5
:10174000E20084608093E20078948091F701843015
:10175000E1F789EC91E00E949B060E94631181E011
:1017600091E00E94A41088EB91E00E949B060E94E9
:101770005F0B8091F701853019F40E946F0BF9CF50
:101780000E946B11F6CF0E94451E80914C01809300
:101790006E0108950C94C30B292F33272330310594
:1017A000A9F06CF42130310509F442C02230310532
:1017B00009F043C08DE890E02AE132E042C02132D6
:1017C0003105C9F02232310519F137C0992781302E
:1017D000910541F08230910541F0892B71F5E6E1E8
:1017E000F2E005C0ECEFF1E002C0EAEEF1E0849136
:1017F00090E09F0126C0653000F5E62FF0E0EE0F87
:10180000FF1FEC5DFE4F2081318189E090E019C01F
:10181000653098F4E62FF0E0DF01AA0FBB1FA65E4B
:10182000BE4F2D913C91EB5EFE4F808190E009C050
:1018300082E190E027EA32E004C080E090E020E01E
:1018400030E0FA0131832083089580E189BD82E18F
:1018500089BD09B400FEFDCF8091D8008F7D8093B3
:10186000D8008091E00082608093E0008091E000E9
:1018700081FDFCCF0895CF92DF92EF92FF920F93FC
:101880001F93CF93DF937C018B01EA010E949D0D92
:10189000811131C0209731F088819981081B190B83
:1018A000E80EF91EC12CD12C0115110519F18091FA
:1018B000E80085FD14C08091E8008E778093E800F1
:1018C000209741F0888199818C0D9D1D9983888393
:1018D00085E011C00E949D0D882331F30CC0F701F3
:1018E00081917F018093F10001501109FFEFCF1A20
:1018F000DF0ADACF80E0DF91CF911F910F91FF9047
:10190000EF90DF90CF9008952091FE013091FF017C
:101910002617370748F06115710539F42091E80062
:101920002E772093E80001C0B901FC0120E0611589
:101930007105B9F18091F701882309F440C0853021
:1019400009F43FC08091E80083FD3DC08091E8002C
:1019500082FF06C08091E80082FF26C080E00895E3
:101960008091E80080FFE3CF2091F3008091F200A6
:1019700090E0922B6115710551F08830910538F493
:1019800021912093F100615071090196F3CF21E07C
:10199000089709F020E08091E8008E778093E800B6
:1019A000C6CF2111C7CFD6CF8091F701882339F058
:1019B000853039F08091E80083FFCCCF04C082E00D
:1019C000089583E0089581E008952091FE0130910B
:1019D000FF012617370748F06115710539F420918A
:1019E000E8002E772093E80001C0B901FC0120E057
:1019F00061157105C1F18091F701882309F441C097
:101A0000853009F440C08091E80083FD3EC080919C
:101A1000E80082FF06C08091E80082FF27C080E0D6
:101A200008958091E80080FFE3CF2091F30080913A
:101A3000F20090E0922B6115710559F08830910504
:101A400040F424912093F100319661507109019680
:101A5000F2CF21E0089709F020E08091E8008E772E
:101A60008093E800C5CF2111C6CFD5CF8091F70173
:101A7000882339F0853039F08091E80083FFCBCF9F
:101A800004C082E0089583E0089581E00895982FCE
:101A9000973058F59093E900981739F07091EC0061
:101AA0002091ED005091F00003C0242F762F50E0DC
:101AB00021FF19C03091EB003E7F3093EB00309155
:101AC000ED003D7F3093ED003091EB0031603093BD
:101AD000EB007093EC002093ED005093F000209108
:101AE000EE0027FF07C09F5FD3CF8F708093E90080
:101AF00081E0089580E008958091F80187FD05C098
:101B00008091E80080FF0EC012C08091E80082FD45
:101B100005C08091F7018111F8CF08958091E80008
:101B20008B7708C08091F7018111EACF08958091E9
:101B3000E8008E778093E80008958091E40090910A
:101B4000E50045E62091EC0020FF21C02091E8004F
:101B500020FD21C02091F701222389F0253089F052
:101B60002091EB0025FD0FC02091E4003091E500AD
:101B70002817390739F3415041F0C901E3CF82E01A
:101B8000089583E0089581E0089584E00895209108
:101B9000E80022FFDFCF80E008950E943B0E0E9404
:101BA000430EE0EEF0E0808181608083E8EDF0E0BC
:101BB00080818F77808319BCA7EDB0E08C918E7FF8
:101BC0008C9380818F7E80831092F60108950F930D
:101BD0001F93CF93DF930E943B0E0E94430EC8EDEC
:101BE000D0E088818F778883888180688883888126
:101BF0008F7D888319BC1092F7011092F301109227
:101C0000F5011092F40100EE10E0F80180818B7F65
:101C1000808388818160888342E060E080E00E9468
:101C2000470DE1EEF0E080818E7F8083E2EEF0E010
:101C3000808181608083808188608083F8018081D9
:101C40008E7F8083888180618883DF91CF911F910F
:101C50000F910895E8EDF0E080818F7E8083E7EDBD
:101C6000F0E080818160808384E082BF81E08093A6
:101C7000F6010C94E70DE8EDF0E080818E7F808323
:101C80001092E20008951092DA001092E100089597
:101C90001F920F920FB60F9211242F933F934F93E1
:101CA0005F936F937F938F939F93AF93BF93EF93C4
:101CB000FF938091E10082FF0BC08091E20082FFE0
:101CC00007C08091E1008B7F8093E1000E94530A5E
:101CD0008091DA0080FF1FC08091D80080FF1BC078
:101CE0008091DA008E7F8093DA008091D90080FFA6
:101CF0000DC080E189BD82E189BD09B400FEFDCF40
:101D000081E08093F7010E94390A05C019BC109246
:101D1000F7010E944B0A8091E10080FF19C0809179
:101D2000E20080FF15C08091E2008E7F8093E20088
:101D30008091E20080618093E2008091D80080620F
:101D40008093D80019BC85E08093F7010E946D0B49
:101D50008091E10084FF30C08091E20084FF2CC0BC
:101D600080E189BD82E189BD09B400FEFDCF80918B
:101D7000D8008F7D8093D8008091E1008F7E809382
:101D8000E1008091E2008F7E8093E2008091E2008A
:101D900081608093E2008091F301882311F084E058
:101DA00007C08091E30087FF02C083E001C081E0AB
:101DB0008093F7010E94CA0B8091E10083FF29C044
:101DC0008091E20083FF25C08091E100877F8093AE
:101DD000E10082E08093F7011092F3018091E1002D
:101DE0008E7F8093E1008091E2008E7F8093E200FD
:101DF0008091E20080618093E20042E060E080E058
:101E00000E94470D8091F00088608093F0000E944E
:101E1000520AFF91EF91BF91AF919F918F917F9166
:101E20006F915F914F913F912F910F900FBE0F9047
:101E30001F9018951F920F920FB60F9211242F9397
:101E40003F934F935F936F937F938F939F93AF9342
:101E5000BF93CF93EF93FF93C091E900CF70809130
:101E6000EC001092E9008091F000877F8093F000F1
:101E700078940E94560F1092E9008091F0008860DB
:101E80008093F000C093E900FF91EF91CF91BF9153
:101E9000AF919F918F917F916F915F914F913F9102
:101EA0002F910F900FBE0F901F9018951F93CF93F7
:101EB000DF93CDB7DEB7AA970FB6F894DEBF0FBE9B
:101EC000CDBFE8EFF1E08091F100819322E0E030B6
:101ED000F207C9F70E94AC0A8091E80083FF1CC199
:101EE0002091F8013091F901832F90E08A3091051B
:101EF00008F012C1FC01EA5AFF4F0C943E2C203826
:101F000081F0223809F008C18091FC018F70809324
:101F1000E9008091EB0085FB882780F91092E900A9
:101F200006C08091F4019091F50191118260909129
:101F3000E800977F9093E8008093F1001092F10001
:101F4000C5C0822F8D7F09F0E7C0222319F022300F
:101F500061F0E2C08091FA01813009F0DDC03330D8
:101F600009F080E08093F50128C08091FA01811189
:101F700024C02091FC012F7009F4CEC02093E90009
:101F80008091EB0080FF19C08091EB00333011F499
:101F9000806211C080618093EB0081E090E0022EAE
:101FA00001C0880F0A94EAF78093EA001092EA00D1
:101FB0008091EB0088608093EB001092E9008091A3
:101FC000E800877F86C02111A7C01091FA011F7712
:101FD0008091E3008078812B8093E3008091E8007A
:101FE000877F8093E8000E947C0D8091E80080FF4D
:101FF000FCCF8091E30080688093E300112311F00F
:1020000083E001C082E08093F70186C0205822302F
:1020100008F082C08091FA019091FB018C3D23E091
:10202000920779F583E08A838AE289834FB7F8942F
:10203000DE01139620E03EE051E2E32FF0E0509302
:102040005700E49120FF03C0E295EF703F5FEF700F
:102050008E2F90E0EA3010F0C79601C0C0968D93A5
:102060009D932F5F243149F74FBF8091E800877F10
:102070008093E8006AE270E0CE0101960E94840C31
:1020800014C0AE014F5F5F4F6091FC010E94CC0B0A
:10209000009709F441C02091E800277F2093E800D1
:1020A000BC0189819A810E94E50C8091E8008B77C0
:1020B0008093E80031C0203879F58091E800877F6F
:1020C0008093E8008091F3018093F1008091E80013
:1020D0008E778093E8000E947C0D1EC021111CC0E9
:1020E0009091FA019230C0F48091E800877F80934C
:1020F000E8009093F3010E947C0D8091F30181111F
:1021000004C08091E30087FF02C084E001C081E049
:102110008093F7010E94930A8091E80083FF0AC030
:102120008091E800877F8093E8008091EB008062D7
:102130008093EB00AA960FB6F894DEBF0FBECDBF1A
:10214000DF91CF911F910895909375018093740151
:102150000895E0917401F0917501309721F001909C
:10216000F081E02D099480E00895FF920F931F9372
:10217000CF93DF938C01E0917401F091750130975A
:1021800099F10280F381E02D09958091E20182FFAF
:102190002BC080FF04C08DEF93E00E949B06E801F6
:1021A00080E2F82E07EF13E08091E20180FF0BC080
:1021B00088811F928F931F930F930E9434070F9073
:1021C0000F900F900F90FA942196F110EDCF80911F
:1021D000E20180FF09C085EF93E0DF91CF911F916D
:1021E0000F91FF900C949B06DF91CF911F910F915F
:1021F000FF900895E0917401F0917501309721F0FE
:102200000480F581E02D09940895CF93DF93EC01CC
:102210008091720190917301C817D90709F1D09389
:102220007301C0937201E0917401F09175013097D0
:10223000B9F00680F781E02DCE0109958091E20189
:1022400082FF0EC080FF0CC0DF93CF9387EE93E038
:102250009F938F930E9434070F900F900F900F90D1
:10226000DF91CF910895CF93DF93EC0180917001BE
:1022700090917101C817D90709F1D0937101C093EA
:102280007001E0917401F09175013097B9F000840C
:10229000F185E02DCE0109958091E20182FF0EC00B
:1022A00080FF0CC0DF93CF9387ED93E09F938F93D4
:1022B0000E9434070F900F900F900F90DF91CF91F5
:1022C00008950C943F120E94741E0E9458070E94A9
:1022D00082200C941E2A5F926F927F928F929F921F
:1022E000AF92BF92CF92DF92EF92FF920F931F9324
:1022F000CF93DF9300D000D01F92CDB7DEB70E94FE
:10230000930797E7C92E91E0D92E00E010E0AA24A8
:10231000A394B12C502E802F0E9498083C01F60106
:10232000E190F1906F01E826F926E114F104B1F48F
:102330000F5F1F4F0430110569F78FEF89838A8380
:102340001B820E947D1E8160782F9D838C83498132
:102350005A816B818D810E94421241C08091E201BD
:1023600081FD0E94A10820E030E04501022E02C05C
:10237000880C991C0A94E2F7C4018E219F21892BB5
:1023800041F129835A826820792081E0672809F485
:1023900080E08B830E947D1E8160782F9D838C83DB
:1023A00049815A816B818D810E94421249815A81F3
:1023B0006B817C818D810E94F61DF801EE0FFF1F5D
:1023C000E958FE4F808191818825992591838083EA
:1023D00006C02F5F3F4F2C30310539F6A9CF0E9440
:1023E000F51D0E941724109176010E94A91018175C
:1023F00071F10E94A910809376019091E20192FF01
:102400000EC090FF0CC01F928F9388E094E09F93C2
:102410008F930E9434070F900F900F900F90809130
:1024200076010F900F900F900F900F90DF91CF914A
:102430001F910F91FF90EF90DF90CF90BF90AF90E2
:102440009F908F907F906F905F900C94071E0F90DD
:102450000F900F900F900F90DF91CF911F910F91E0
:10246000FF90EF90DF90CF90BF90AF909F908F90B4
:102470007F906F905F9008950C94EF0808950895F1
:1024800008950895CF93DF93CDB7DEB72B970FB69E
:10249000F894DEBF0FBECDBF4F83588769877A8718
:1024A0008B878A859B85892B31F05F3F11F080E017
:1024B00003C04F3FE1F781E0811107C04F8158858C
:1024C00069857A858B850E94F61DDE01119686E06E
:1024D000FD0111928A95E9F785E0FE01379601909A
:1024E0000D928A95E1F749815A816B817C818D81BA
:1024F0009E810E943F1A2B960FB6F894DEBF0FBE46
:10250000CDBFDF91CF910895CF93C82F882309F4D1
:10251000E7C08238A1F40E94A91081FDE1C089E3DF
:102520000E94BC1C0E949E1D2FEF81EE94E0215062
:1025300080409040E1F700C0000089E315C0833877
:10254000C1F40E94A91080FDCBC083E50E94BC1C91
:102550000E949E1D2FEF81EE94E02150804090401C
:10256000E1F700C0000083E50E940D1DCF910C949F
:102570009E1D8438A1F40E94A91082FDB1C087E499
:102580000E94BC1C0E949E1D2FEF81EE94E0215002
:1025900080409040E1F700C0000087E4E5CF8CEF79
:1025A0008C0F813A48F48C2F0E94CC28811198C05E
:1025B0008C2F0E94BC1CDACF80E28C0F883048F44C
:1025C000C77081E001C0880FCA95EAF70E94621DBA
:1025D000CDCF8BE58C0F833078F4C53A29F0C63A1D
:1025E00031F482E890E005C081E890E002C083E821
:1025F00090E0CF910C94051188E58C0F853108F09F
:102600006FC0C83A61F1C93A69F1CA3A71F1CB3A7F
:1026100079F1CC3A81F1CD3A89F1CE3A91F1CF3AC4
:1026200099F1C13BA1F1C03BA9F1C23BB1F1C33B60
:10263000B9F1C43BC1F1C53BC9F1C63BD1F1C73BC0
:10264000D9F1C83BE1F1C93BE9F1CA3BF1F1CB3B20
:10265000F9F1CC3B09F03FC08AE292E03EC082EE45
:1026600090E03BC089EE90E038C08AEE90E035C043
:1026700085EB90E032C086EB90E02FC083EB90E0DA
:102680002CC084EB90E029C087EB90E026C08CEC56
:1026900090E023C08DEC90E020C083E891E01DC065
:1026A0008AE891E01AC082E991E017C084E991E0DC
:1026B00014C081E292E011C083E292E00EC084E295
:1026C00092E00BC085E292E008C086E292E005C08D
:1026D00087E292E002C080E090E0CF910C94331149
:1026E000CF910895882309F466C08238A1F40E942E
:1026F000A91081FF60C089E30E94BC1C0E949E1D3E
:102700002FEF81EE94E0215080409040E1F700C02F
:10271000000089E315C08338B9F40E94A91080FF36
:102720004AC083E50E94BC1C0E949E1D2FEF81EED3
:1027300094E0215080409040E1F700C0000083E524
:102740000E940D1D0C949E1D8438A1F40E94A910B6
:1027500082FF31C087E40E94BC1C0E949E1D2FEFA7
:1027600081EE94E0215080409040E1F700C00000ED
:1027700087E4E6CF9CEF980F913A10F390E2980F20
:10278000983050F4877091E001C0990F8A95EAF76C
:10279000892F0E94681DD6CF9BE5980F933020F4B7
:1027A00080E090E00C940511885A853120F480E097
:1027B00090E00C9433110895882321F00E94621D4B
:1027C0000C949E1D0895882321F00E94681D0C948E
:1027D0009E1D0895CF92DF92EF92FF920F931F9369
:1027E000CF93DF93CDB7DEB728970FB6F894DEBF4F
:1027F0000FBECDBF8C0185E0F801DE01119601907E
:102800000D928A95E1F7F80140813181F2802581AE
:1028100022952F7083819481892B31F03F3F31F4D1
:1028200081E04F3F19F403C081E001C080E080FDEA
:1028300039C349833A8389819A812F830E947A1C04
:102840009E8388870E94791C0E94A11B4E81E42FE1
:10285000E295EF70F0E0E05AFF4F2F8168850C940D
:102860003E2C842F807F142F1F70882311F0129527
:10287000107FFF2059F0112309F45FC2812F688770
:102880000E94751D0E949E1D688557C2862F0E945A
:102890007213112309F406C3812F0E947B1D289611
:1028A0000FB6F894DEBF0FBECDBFDF91CF911F9161
:1028B0000F91FF90EF90DF90CF900C949E1D842F8E
:1028C000807F942F9F70E92E803219F0E29480EF80
:1028D000E822662319F0613001F129C0FF20A9F038
:1028E0008E2D222349F1213039F528960FB6F89420
:1028F000DEBF0FBECDBFDF91CF911F910F91FF9033
:10290000EF90DF90CF900C94851D222319F0213099
:1029100009F4C8C20E94881D2CC0FF20E9F02630AF
:1029200008F0C0C20E945F1D8E2129F022C0FF2046
:10293000F1F0211115C08E2D28960FB6F894DEBF48
:102940000FBECDBFDF91CF911F910F91FF90EF9000
:10295000DF90CF900C94DC13253008F0A3C209C09F
:10296000F801858180FFE9C18F708583E4CF211153
:10297000F8C18E2D66C1242F26952695237030E050
:102980002115310521F021303105C9F08BC2FF201E
:1029900021F0862F942F937002C080E090E028965B
:1029A0000FB6F894DEBF0FBECDBFDF91CF911F9160
:1029B0000F91FF90EF90DF90CF900C940511FF20C6
:1029C00021F0862F942F937002C080E090E028962B
:1029D0000FB6F894DEBF0FBECDBFDF91CF911F9130
:1029E0000F91FF90EF90DF90CF900C943311862FD2
:1029F000FF2019F00E949D2202C00E940523289604
:102A00000FB6F894DEBF0FBECDBFDF91CF911F91FF
:102A10000F91FF90EF90DF90CF900C948A23842F3A
:102A2000837009F076C0F1103DC2262F22952695BD
:102A30002770220F220F862F8F70C82ED12CE12CE9
:102A4000F12C022E04C0CC0CDD1CEE1CFF1C0A94E1
:102A5000D2F764FF10C06FE070E080E090E004C047
:102A6000660F771F881F991F2A95D2F7609570957A
:102A70008095909503C060E070E0CB01242F2695EF
:102A800026952370422F50E042305105D1F043305B
:102A9000510559F16C297D298E299F294130510515
:102AA00041F128960FB6F894DEBF0FBECDBFDF917F
:102AB000CF911F910F91FF90EF90DF90CF900C94EA
:102AC000B61B6C297D298E299F2928960FB6F8946C
:102AD000DEBF0FBECDBFDF91CF911F910F91FF9051
:102AE000EF90DF90CF900C94C81B0E94B61BC701DB
:102AF000B60128960FB6F894DEBF0FBECDBFDF91AA
:102B0000CF911F910F91FF90EF90DF90CF900C9499
:102B1000A41BFF2019F0842F817001C086958823A3
:102B200009F4C0C1262F229526952770220F220F67
:102B3000862F8F70C82ED12CE12CF12C022E04C0D0
:102B4000CC0CDD1CEE1CFF1C0A94D2F764FF10C0F5
:102B50006FE070E080E090E004C0660F771F881F90
:102B6000991F2A95D2F7609570958095909503C02E
:102B700060E070E0CB01242F269526952370422F2C
:102B800050E042305105D1F04330510559F16C29E4
:102B90007D298E299F294130510541F128960FB694
:102BA000F894DEBF0FBECDBFDF91CF911F910F9183
:102BB000FF90EF90DF90CF900C94551C6C297D29ED
:102BC0008E299F2928960FB6F894DEBF0FBECDBF81
:102BD000DF91CF911F910F91FF90EF90DF90CF90F9
:102BE0000C94671C0E94551CC701B60128960FB6AD
:102BF000F894DEBF0FBECDBFDF91CF911F910F9133
:102C0000FF90EF90DF90CF900C94431C603F49F110
:102C100018F4603E48F48CC0623F09F451C0E0F102
:102C2000633F09F461C084C0162F1F70842F8F7119
:102C3000FF2021F00E94EE1B812F7ECE0E94091CF6
:102C4000812F28960FB6F894DEBF0FBECDBFDF915F
:102C5000CF911F910F91FF90EF90DF90CF900C9448
:102C6000E313FF20A9F0253008F01CC1842F8F71D9
:102C700028960FB6F894DEBF0FBECDBFDF91CF917F
:102C80001F910F91FF90EF90DF90CF900C94281C34
:102C9000263008F007C1EACFFF20A1F0842F8F7102
:102CA00028960FB6F894DEBF0FBECDBFDF91CF914F
:102CB0001F910F91FF90EF90DF90CF900C94EE1B3F
:102CC000FF2061F3842F8F7128960FB6F894DEBF32
:102CD0000FBECDBFDF91CF911F910F91FF90EF906D
:102CE000DF90CF900C94091CFF2091F0842F8F71FE
:102CF00028960FB6F894DEBF0FBECDBFDF91CF91FF
:102D00001F910F91FF90EF90DF90CF900C94DF1BFD
:102D100028960FB6F894DEBF0FBECDBFDF91CF91DE
:102D20001F910F91FF90EF90DF90CF900C94DA1BE2
:102D3000FF20A1F0222309F4B1CF862F28960FB6E9
:102D4000F894DEBF0FBECDBFDF91CF911F910F91E1
:102D5000FF90EF90DF90CF900C948412222309F41F
:102D6000B1CF862F28960FB6F894DEBF0FBECDBF29
:102D7000DF91CF911F910F91FF90EF90DF90CF9057
:102D80000C9472134F70C8010E949A1F28960FB6B8
:102D9000F894DEBF0FBECDBFDF91CF911F910F9191
:102DA000FF90EF90DF90CF900C94EC1AF1107AC066
:102DB000942F9F70492F50E04230510509F440C0D4
:102DC000BCF44115510561F14130510509F06AC06B
:102DD00028960FB6F894DEBF0FBECDBFDF91CF911E
:102DE0001F910F91FF90EF90DF90CF900C94532A9A
:102DF00043305105A9F14430510509F053C0862FE5
:102E000028960FB6F894DEBF0FBECDBFDF91CF91ED
:102E10001F910F91FF90EF90DF90CF900C94E02ADC
:102E200028960FB6F894DEBF0FBECDBFDF91CF91CD
:102E30001F910F91FF90EF90DF90CF900C942F2A6D
:102E400028960FB6F894DEBF0FBECDBFDF91CF91AD
:102E50001F910F91FF90EF90DF90CF900C94822AFA
:102E600028960FB6F894DEBF0FBECDBFDF91CF918D
:102E70001F910F91FF90EF90DF90CF900C94A82AB4
:102E80004F70C80128960FB6F894DEBF0FBECDBFB5
:102E9000DF91CF911F910F91FF90EF90DF90CF9036
:102EA0000C943D0728960FB6F894DEBF0FBECDBF39
:102EB000DF91CF911F910F91FF90EF90DF90CF9016
:102EC00008950E94821D0E94511D0E949E1D0E9415
:102ED000B8240E948A2380E090E00E94051180E0DF
:102EE00090E00C9433110E94721D0C9461170E94A3
:102EF0007A1C292F22952F7030E02C3031054CF4AC
:102F00002A3031056CF4225031092230310590F419
:102F100007C02C30310551F02F30310539F00AC08F
:102F2000803E10F0803F31F481E0089593FB8827C4
:102F300080F9089580E00895CF93DF9300D000D00A
:102F40001F92CDB7DEB70F900F900F900F900F909C
:102F5000DF91CF910895CF93DF9300D000D000D0C0
:102F6000CDB7DEB726960FB6F894DEBF0FBECDBF45
:102F7000DF91CF9108951F93CF93DF93C0917F018D
:102F800016E080918001C81799F0D0E01C9FF001F5
:102F90001D9FF00D1124EF57FE4F4081518162813A
:102FA0007381848195810E94AB172196C770E9CF08
:102FB000DF91CF911F9108954091B1015091B201DD
:102FC0006091B3017091B4018091B5019091B60107
:102FD0000C94AB17CF938091B60182958F7009F056
:102FE0005FC08091B301882309F45AC020917F010A
:102FF000A09180016091B1017091B2018091B40102
:103000009091B50131E06F3F09F030E0B32FC6E099
:103010002A1709F445C0009721F07F3F21F44B2F78
:1030200003C041E001C040E030E040FD35C0C29F38
:10303000F001C39FF00D1124EF57FE4F418174132F
:103040002BC04081641328C04281411125C04381B7
:1030500054814817590710F441505109481B590B26
:103060004F3A5105C8F48091B6018F70806180930A
:10307000B60186E0829FF001839FF00D1124EA578C
:10308000FE4F80818F708061808381EB91E00E9490
:10309000EA13CF910C94BB172F5F3F4F2770B8CF27
:1030A000CF910895CF92DF92EF92FF920F931F93EB
:1030B000CF93DF93CDB7DEB762970FB6F894DEBF3C
:1030C0000FBECDBF8C0185E0F801DE011D96019099
:1030D0000D928A95E1F7D8014C9111965C91119768
:1030E00012966C9112971396ED90FC901497709134
:1030F000B101E091B2012091B4013091B5012115E7
:10310000310531F0EF3F31F481E07F3F19F403C026
:1031100081E001C080E0B82FB170CB2E80FD6CC182
:10312000D090B301DD2009F4F5C0F091B601E216AC
:10313000F30638F0C701821B930B8F3A910548F0D4
:103140009BC0209530952E0D3F1D2F3A310508F07C
:1031500093C08F2F807F09F052C0E51314C0741301
:1031600012C0D62E61110FC0FF70F061F093B6014E
:103170000E94DC1781EB91E00E94EA138091B60176
:10318000F80185836CC1EF2831F05F3F31F481E0B5
:103190004F3F19F403C081E001C080E080FD03C00F
:1031A00081E0862701C080E0F82FF170FF2E80FFBC
:1031B0001CC080917F012091800136E0821709F4C4
:1031C00028C190E0389FF001399FF00D1124EF578E
:1031D000FE4F7181571306C07081471303C072817F
:1031E000671303C001968770E9CFD62E662309F4D2
:1031F00036C18091B60181608093B60153C0E5135A
:1032000008C0741306C0611104C0D8011596FC9360
:10321000AEC04D875E878D859E856A8B0E9477172D
:103220006A89882329F1D62E662311F12091B601EF
:10323000822F82958F7090E002970CF460C080918D
:10324000B1019091B20198878F831986FB86EA8637
:103250002C87CE01079651C0E51731F14D875E8767
:103260008D859E856A8B0E9477176A8981112EC091
:10327000C8010E94EA13A4C08F2F807F69F77E2DBA
:10328000F98AE88A89890E949C1781EB91E00E9463
:10329000EA13E1EBF1E086E0DF011D928A95E9F7A0
:1032A0000E94DC17D12CDBC07413D8CF6111D6CFAC
:1032B000D8011596FC93C8010E94EA13E1EBF1E0F6
:1032C00086E0DF011D928A95E9F7C9C0D62E6623F4
:1032D00079F22091B601822F82958F7090E002974B
:1032E00074F08091B1019091B2019A8389831B821D
:1032F000FD82EC822E83CE0101960E94EA1386E0C5
:10330000F801A1EBB1E001900D928A95E1F70E94DE
:10331000EA176FC0E216F30628F0C701821B930B71
:103320009C0104C0209530952E0D3F1D2F3A31058C
:1033300008F052C0D62E662309F49ACFE5132CC0AC
:1033400074132AC08091B60180FD1DC0982F9295FC
:103350009F70C9F0D80115968C9315979F3039F05E
:103360009F5F9295907F8F70892B15968C93C801E3
:103370000E94EA1386E0F801A1EBB1E001900D9202
:103380008A95E1F736C086E0F801A1EBB1E0019043
:103390000D928A95E1F763C04D875E878D859E8586
:1033A0000E947717882379F086E0F801A1EBB1E05D
:1033B00001900D928A95E1F70E94EA170E94DC17AE
:1033C000DD24D3944CC08091B60181608093B60116
:1033D000C8010E94EA1343C07E2DF98AE88A8989D0
:1033E0000E949C17E1EBF1E086E0DF011D928A95D7
:1033F000E9F70E94DC1733C0662309F439CF4D8703
:103400005E878D859E850E947717882309F430CFCB
:10341000CBCF4D875E878D859E850E947A1C292F94
:1034200022952F7030E0223031052CF49F7041F04E
:10343000811106C00CC0243031052CF49F7049F472
:10344000805E883020F0C8010E94EA13CF2CDC2C6B
:1034500006C0D80115969C91907F91F7F8CF8D2DDD
:1034600062960FB6F894DEBF0FBECDBFDF91CF914D
:103470001F910F91FF90EF90DF90CF9008951F93D1
:10348000CF93DF93CDB7DEB72C970FB6F894DEBF9E
:103490000FBECDBF4F83588769877A878B879C87FC
:1034A000CE0107960E9452188823C1F02F813885DB
:1034B0008A859B85892B31F03F3F11F080E003C066
:1034C0002F3FE1F781E0811147C04F815885698521
:1034D0007A858B859C850E94AB173EC086E0FE01F5
:1034E0003796DE01119601900D928A95E1F7FF81E2
:1034F000E8854A855B854115510531F0EF3F31F490
:1035000081E0FF3F19F403C081E001C080E080FD4D
:1035100023C02091800130E0C9010196877099276E
:1035200060917F0170E086179707F1F1F983EA83D4
:103530005D834C8396E0929FD001939FB00D112440
:10354000AF57BE4FFE01319601900D929A95E1F76B
:10355000809380010E94BB1716E080917F019091BB
:103560008001891779F1189FC00111248F579E4F50
:103570000E945218882331F1E0917F011E9FF001D3
:103580001124EF57FE4F4081518162817381848104
:1035900095810E94AB1780917F0190E00196877022
:1035A000992780937F01D9CF0E94731710928001D1
:1035B00010927F01E1EBF1E086E0DF011D928A9538
:1035C000E9F7CACF2C960FB6F894DEBF0FBECDBF79
:1035D000DF91CF911F910895DF92EF92FF920F93A9
:1035E0001F93CF93DF93FC01009709F48AC0E12C6D
:1035F000F12CDD24D394EF0121968491853709F4D1
:1036000061C058F4843708F04EC0843008F06AC0B6
:103610008130D1F0823071F174C0883709F45DC017
:1036200050F4863709F455C0873709F06AC08E2DEB
:103630000E946F1D54C09CE7980F903708F061C03E
:103640008F770E94721350C08F010E5F1F4FFE01D3
:10365000849190E2980F983050F48770FD2D01C04E
:10366000FF0F8A95EAF78F2F0E94751D15C00E94E3
:10367000841214C08F010E5F1F4FFE01849190E2EF
:10368000980F983068F48770FD2D01C0FF0F8A9560
:10369000EAF78F2F0E947B1D0E949E1DE80124C027
:1036A0000E947213FBCF9F012E5F3F4FFE01C4911A
:1036B000CC2369F08FE99FE00197F1F700C000008B
:1036C000C150F6CF9F012E5F3F4FFE01F490E901FC
:1036D0000BC00E945F1DE82E07C00E94721D0E9451
:1036E0009E1D02C00E9484129F2D992341F0EFE994
:1036F000FFE03197F1F700C000009150F6CFFE01D6
:103700007ACFDF91CF911F910F91FF90EF90DF90D3
:1037100008956093BB017093BC018093BD019093A9
:10372000BE010E94051E0C9461176093B70170934F
:10373000B8018093B9019093BA010E94061E0C94BF
:10374000611708950C94891B0F931F930091BB017F
:103750001091BC012091BD013091BE01602B712BF5
:10376000822B932B1F910F910C94891B0F931F9306
:103770000091BB011091BC012091BD013091BE01AF
:1037800060237123822393231F910F910C94891B33
:103790000F931F930091BB011091BC012091BD01BB
:1037A0003091BE0160277127822793271F910F91C7
:1037B0000C94891B60E070E0CB010C94951B41E0F8
:1037C00050E060E070E004C0440F551F661F771F93
:1037D0008A95D2F7CB01BA010C94951B41E050E0D9
:1037E00060E070E004C0440F551F661F771F8A9584
:1037F000D2F78091B7019091B801A091B901B09131
:10380000BA01482B592B6A2B7B2BCB01BA010C94A4
:10381000951B41E050E060E070E004C0440F551F8C
:10382000661F771F8A95D2F74095509560957095E1
:103830008091B7019091B801A091B901B091BA01FE
:10384000482359236A237B23CB01BA010C94951B8F
:1038500041E050E060E070E004C0440F551F661F77
:10386000771F8A95D2F78091B7019091B801A09106
:10387000B901B091BA01482759276A277B27CB01A4
:10388000BA010C94951B0F931F930091B7011091EF
:10389000B8012091B9013091BA01602B712B822BB4
:1038A000932B1F910F910C94951B0F931F930091D5
:1038B000B7011091B8012091B9013091BA0160238C
:1038C0007123822393231F910F910C94951B0F93C7
:1038D0001F930091B7011091B8012091B901309167
:1038E000BA0160277127822793271F910F910C94AB
:1038F000951B0895CF92DF92EF92FF920F931F9343
:10390000CF93DF93EC01C090BB01D090BC01E0905D
:10391000BD01F090BE018091B7019091B801A091D6
:10392000B901B091BA01C82AD92AEA2AFB2A0FE1C3
:1039300010E0B701A601002E04C076956795579553
:1039400047950A94D2F740FF07C0BE01802F0E941E
:10395000B51F8130910539F40150110950F7BE01AE
:1039600080E00E94B51FDF91CF911F910F91FF90D2
:10397000EF90DF90CF90089590910B01992361F122
:1039800090910C01992341F1982F969596959695D3
:103990009F3188F4E0910D01F0910E01E90FF11DC6
:1039A000877021E030E001C0220F8A95EAF781811B
:1039B000822B818308959091E20190FF2DC01F9288
:1039C0008F9381E394E09F938F930E9434070F902D
:1039D0000F900F900F90089540910D0150910E019E
:1039E00020E030E09FEFFA01E20FF31F62816817D9
:1039F00099F09F3F19F4611101C0922F2F5F3F4F43
:103A00002E31310581F79F3F39F0FA01E90FF11DA1
:103A100097FDFA9582830895089590910B0199235B
:103A200069F190910C01992349F1982F96959695FB
:103A300096959F3190F4E0910D01F0910E01E90F00
:103A4000F11D877021E030E001C0220F8A95EAF76E
:103A5000209581812823218308959091E20190FF90
:103A60001FC01F928F9383E194E09F938F930E94D6
:103A700034070F900F900F900F90089540910D0113
:103A800050910E0120E030E0FA01E20FF31F928125
:103A9000981301C012822F5F3F4F2E313105A1F7DD
:103AA000089581E090E0E0910D01F0910E01E80FA2
:103AB000F91F1082019680329105A9F7089580912F
:103AC000E10108959091E101982B9093E10108950F
:103AD00080959091E10198239093E101089580935E
:103AE000E10108951092E10108959091E001982B71
:103AF0009093E001089580959091E0019823909330
:103B0000E00108951092E00108958093BF010895A7
:103B10001092BF01089540910D0150910E0120E0D7
:103B200030E080E0FA01E20FF31F918191118F5F85
:103B30002F5F3F4F2F313105A9F70895E0910D0117
:103B4000F0910E018091E1018083E0910D01F091EF
:103B50000E0180819091E001892B80839091BF01BB
:103B6000992361F0E0910D01F0910E018081892B84
:103B700080830E948B1D81111092BF0180910D01E5
:103B800090910E010C94B5109093390180933801F7
:103B900008958295982F9C7C96959695837344E022
:103BA000849F90011124922B892F8A7A869595758E
:103BB000990F892B08951F93CF93DF931F92CDB751
:103BC000DEB799830E94C91D182F9981892F0E9401
:103BD000C91D212F30E0322F2227A901482BCA010D
:103BE0000F90DF91CF911F9108950895CF93DF93A8
:103BF00000D000D01F92CDB7DEB70F900F900F907E
:103C00000F900F90DF91CF910895089508950C942F
:103C10003C1208958091F701843009F11092E3017C
:103C200020E488E190E00FB6F894A89580936000B6
:103C30000FBE2093600083B7817F846083BF83B70A
:103C4000816083BF7894889583B78E7F83BF88E136
:103C50000FB6F89480936000109260000FBE089534
:103C6000CF930E9440120E9493070E944112C0E02D
:103C70008C2F0E949808892B29F4CF5FC430C1F79C
:103C800080E001C081E0CF9108950E943E120E9421
:103C900073170C941E2A1F920F920FB60F921124C5
:103CA0008F939F93AF93BF938091E301811113C0D2
:103CB0008091E4019091E501A091E601B091E701C6
:103CC0004196A11DB11D8093E4019093E501A0935D
:103CD000E601B093E701BF91AF919F918F910F9053
:103CE0000FBE0F901F90189582E084BD93E095BDA4
:103CF0009AEF97BD80936E0008952FB7F894809146
:103D0000E4019091E501A091E601B091E7012FBF98
:103D100008952FB7F8946091E4017091E5018091C6
:103D2000E6019091E7012FBF0895CF92DF92EF92C5
:103D3000FF920F931F932FB7F8944091E401509195
:103D4000E5016091E6017091E7012FBF6A017B01F7
:103D5000EE24FF248C0120E030E0C016D106E206FC
:103D6000F30610F441505109481B590BCA011F9129
:103D70000F91FF90EF90DF90CF9008951F920F92D8
:103D80000FB60F9211248F939F93AF93BF9380919F
:103D9000E4019091E501A091E601B091E70101965F
:103DA000A11DB11D8093E4019093E501A093E6016C
:103DB000B093E701BF91AF919F918F910F900FBE8C
:103DC0000F901F9018950E94CD0DF8942FEF87EA61
:103DD00091E6215080409040E1F700C0000087E06C
:103DE00090EBDC018093020290930302A093040203
:103DF000B09305022CE088E190E00FB6F894A89506
:103E0000809360000FBE20936000FFCF8D3B60F475
:103E1000883A90F5853A28F5843008F5813009F024
:103E200086C081E090E00895883E98F4803EB8F422
:103E30008F3B09F07CC00E9473172FEF80E792E060
:103E4000215080409040E1F700C000000E94E31E36
:103E50006EC0803F08F46BC090E09065089590E0DC
:103E60000895853A21F0863A21F432E803C031E81A
:103E700001C033E820E458C0883A51F1893A51F141
:103E80008A3A51F18B3A51F18C3A51F18D3A51F114
:103E90008E3A51F18F3A51F1813B51F1803B51F112
:103EA000823B51F1833B51F1843B51F1853B51F110
:103EB000863B59F1873B59F1883B59F1893B59F1D0
:103EC0008A3B59F18B3B61F18C3B61F53AE226C0AC
:103ED00032EE29C039EE27C03AEE25C035EB23C0BB
:103EE00036EB21C033EB1FC034EB1DC037EB1BC0DA
:103EF0003CEC19C03DEC17C033E805C03AE803C0FC
:103F000032E901C034E925E40FC031E207C033E2F1
:103F100005C034E203C035E201C036E226E404C045
:103F200037E2FCCF30E024E4832F922F089580E025
:103F300090E0089580E090E008959CE0799FF00182
:103F4000112490E3899FE00DF11D1124E60FF11D6E
:103F5000E051FF4F84910895E82FF0E0EE0FFF1F2E
:103F6000E05AF0408591949108950E949D1F803EF3
:103F7000A8F4803C00F5813309F45CC038F4893240
:103F800009F452C08A3209F45BC05FC08933B1F0D2
:103F90008238A1F0853309F441C057C0833E41F116
:103FA00028F4803E99F0823EB9F04FC0863E31F150
:103FB000873E71F14AC00E94AC1F089590910002A3
:103FC00090FD02C091FF41C080EE3FC08091000291
:103FD00080FFFACF89E339C08091000282FF0CC0D4
:103FE0008091000284FF02C080E02FC083EE2DC0CC
:103FF0008091000282FFF4CF82EE27C08091000200
:1040000083FF0AC08091000284FDEECF87EE1DC0C1
:104010008091000283FFF6CF86EE17C080910002E8
:1040200085FF06C089E211C08091000285FFFACFAA
:1040300085E30BC08091000286FF06C08AE205C0BE
:104040008091000286FFFACF81E30E94061F089547
:10405000BF92CF92DF92EF92FF920F931F93CF9375
:10406000DF938C01B12CEE24E394F12C8B2D0E9474
:1040700098086C01C0E0D0E097010C2E02C0220F1E
:10408000331F0A94E2F72C213D21232BB1F06C2F32
:104090007B2D80E00E94B51F9C018017910759F08D
:1040A000832F807E932F907C11F0803A31F430E0A2
:1040B0002017310711F481E009C02196CC30D105D9
:1040C000D9F6B39484E0B812D1CF80E0DF91CF91DC
:1040D0001F910F91FF90EF90DF90CF90BF900895C8
:1040E000CF93DF93EC018CE290E00E94282088239C
:1040F00029F0CE01DF91CF910C94282080E0DF9150
:10410000CF910895CF930E94ED21811102C00E94AA
:10411000CE2186E594E00E949B06C5E6C15049F099
:104120000E9493078FE39CE90197F1F700C000001C
:10413000F5CF8FE494E00E949B0689E290E00E9414
:104140007020811129C18AE290E00E9470208111C3
:104150000E94CE2185E090E00E94702081110E9493
:10416000E31E0E94091E0E94F8218093E20187E06D
:1041700090E00E9470208823B1F18BE190E00E94D2
:104180007020882351F09091E20191FB882780F9FB
:1041900021E0822780FB91F924C08EE090E00E940C
:1041A0007020882351F09091E20192FB882780F9DA
:1041B00021E0822780FB92F914C080E190E00E9408
:1041C00070209091E201882341F093FB882780F9C9
:1041D00021E0822780FB93F904C0892F809580FB22
:1041E00090F99093E2018091E2010E94FC210E94EB
:1041F0000A228093000280EE90E00E9470208823C3
:1042000041F080910002982F909590FB80F9809367
:10421000000289E390E00E947020882359F0909179
:10422000000291FB882780F921E0822780FB91F929
:104230009093000282EE90E00E947020882359F053
:104240009091000292FB882780F921E0822780FB71
:1042500092F99093000286EE90E00E9470208823ED
:1042600059F09091000293FB882780F921E0822782
:1042700080FB93F99093000283EE90E00E947020FF
:10428000882359F09091000294FB882780F921E05F
:10429000822780FB94F99093000285E390E00E94CE
:1042A0007020882359F09091000295FB882780F9AF
:1042B00021E0822780FB95F99093000281E390E052
:1042C0000E947020882359F09091000296FB882765
:1042D00080F921E0822780FB96F99093000281E12A
:1042E00090E00E947020882359F09091000297FB83
:1042F000882780F921E0822780FB97F990930002BC
:10430000809100020E940E228091000287FB882784
:1043100080F980930C0187E290E00E947020C82F02
:104320008EE190E00E9470208111C2608FE190E0E8
:104330000E9470208111C46080E290E00E94702091
:104340008111C86081E290E00E9470208111C061FB
:1043500082E290E00E9470208111C06283E290E0CE
:104360000E9470208111C06484E290E00E9470205D
:10437000882311F0C06802C0CC2329F08C2F0E9442
:1043800005226C2F03C00E940122682F70E080E09C
:1043900090E0CF910C94A21BCF9108956DEE7EEF2B
:1043A00080E090E00E94742C60E082E090E00E9447
:1043B000662C60E083E090E00E94662C60E084E080
:1043C00090E00E94662C60E085E090E00E94662C00
:1043D00060E086E090E00C94662C80E090E00E9423
:1043E000602C21E08D3E9E4F09F020E0822F089541
:1043F00082E090E00C94582C682F82E090E00C94BE
:10440000662C83E090E00C94582C682F83E090E0B9
:104410000C94662C84E090E00C94582C682F84E077
:1044200090E00C94662C86E090E00C94582C682F59
:1044300086E090E00C94662C8091EA0180FF0BC02E
:104440006091120185E0689FB00111247595679510
:10445000759567952AC081FF09C06091120185E0BA
:10446000689FB0011124759567951FC082FF07C032
:104470006091120185E0689FB001112416C040913F
:10448000EB014423C9F060911101461788F7209190
:10449000120185E0289F90011124429FC001439F93
:1044A000900D112470E00E942A2C6038710540F4B0
:1044B0006115710539F002C065E070E0862F08953E
:1044C0008FE7089581E008958091EA0180FF08C098
:1044D0006091100170E0759567957595679521C09D
:1044E00081FF06C06091100170E07595679519C055
:1044F00082FF04C06091100170E010C08091EB0158
:104500008823C1F060910F018617A0F790911001E8
:10451000989FC001112470E00E942A2C6038710518
:1045200028F46115710521F0862F08958FE708950D
:1045300081E0089561E070E0F4CF803F21F40E94B3
:104540001C22819504C0813F29F40E941C22809383
:10455000EE010895823F21F40E941C22819504C03F
:10456000833F29F40E941C228093ED010895893F26
:1045700019F40E94642205C08A3F31F40E9464222B
:1045800081958093EF0108958B3F21F40E9464226E
:10459000819504C08C3F29F40E9464228093F0012D
:1045A0000895843F21F48091EC01816017C0853F1C
:1045B00021F48091EC01826011C0863F21F480914A
:1045C000EC0184600BC0873F21F48091EC0188608E
:1045D00005C0883F31F48091EC0180618093EC014B
:1045E00008958D3F21F48091EA0181600BC08E3FD8
:1045F00021F48091EA01826005C08F3F29F4809107
:10460000EA0184608093EA010895803F39F4809143
:10461000EE0187FF6CC01092EE0169C0813F29F462
:104620008091EE011816BCF362C09091ED01823FBB
:1046300029F497FF5CC01092ED0159C0833F19F433
:104640001916CCF354C0893F41F48091EF0118163C
:104650000CF04DC01092EF014AC08A3F29F48091BE
:10466000EF0187FF44C0F6CF8B3F39F48091F00112
:1046700087FF3DC01092F0013AC08C3F29F4809131
:10468000F0011816BCF333C0843F21F48091EC0193
:104690008E7F17C0853F21F48091EC018D7F11C082
:1046A000863F21F48091EC018B7F0BC0873F21F482
:1046B0008091EC01877F05C0883F31F48091EC0147
:1046C0008F7E8093EC0113C08D3F21F48091EA012D
:1046D0008E7F0BC08E3F21F48091EA018D7F05C053
:1046E0008F3F29F48091EA018B7F8093EA018091CA
:1046F000ED0181110EC08091EE0181110AC08091FF
:10470000EF01811106C08091F001811102C0109269
:10471000EB0108958091E20183FF7EC082E994E07D
:104720000E949B068091EC011F928F938DE894E08C
:104730009F938F930E9434078BE894E00E949B061E
:104740002091ED01822F992787FD90959F932F93BC
:1047500088E894E09F938F930E94340786E894E062
:104760000E949B062091EE01822F992787FD90954C
:104770009F932F9383E894E09F938F930E94340735
:1047800081E894E00E949B062091EF01822F9927F7
:1047900087FD90959F932F938EE794E09F938F933F
:1047A0000E9434078CE794E00E949B062091F00160
:1047B000822F992787FD90959F932F9389E794E007
:1047C0009F938F930E94340786E794E00E949B0694
:1047D0008091EB011F928F9383E794E09F938F93D7
:1047E0000E94340781E794E00E949B068091EA01D1
:1047F0001F928F938EE694E09F938F930E943407CD
:104800008BE694E00E949B068DB79EB74C960FB640
:10481000F8949EBF0FBE8DBF8CEE91E00E94FA10FF
:104820000E947D1E9093E9018093E80108951F93F3
:10483000CF93DF938091E8019091E9010E94951E4A
:104840004091EB01442321F02091130130E006C098
:10485000209114015AE0259F90011124821793079B
:1048600008F482C08091ED011091EE01D091EF012A
:10487000C091F001811107C0111105C0D11103C011
:10488000CC2309F471C04F3F19F04F5F4093EB0107
:10489000181624F40E941C228093ED018091ED01F2
:1048A00087FF05C00E941C2281958093ED0111169F
:1048B00024F40E941C228093EE018091EE0187FF78
:1048C00005C00E941C2281958093EE016091ED014C
:1048D000662339F11091EE01112319F1772767FD55
:1048E0007095872F972F0E942F2B23E333E343E309
:1048F0005FE30E94932B0E94FC2A6093ED01612FDD
:10490000772767FD7095872F972F0E942F2B23E322
:1049100033E343E35FE30E94932B0E94FC2A6093FE
:10492000EE011D1624F40E9464228093EF01809111
:10493000EF0187FF05C00E94642281958093EF01FB
:104940001C1624F40E9464228093F0018091F001EF
:1049500087FF05C00E94642281958093F001DF915A
:10496000CF911F910C948A23DF91CF911F910895CD
:10497000ECEEF1E085E0DF011D928A95E9F71092F7
:10498000EB011092EA01089585EB96E00E949B06E8
:104990001F9281E08F931F9285E08F9387E696E0C8
:1049A0009F938F930E9434070F900F900F900F905A
:1049B0000F900F9008958330E9F128F4813061F071
:1049C000823009F10895853009F462C008F449C0C5
:1049D000863009F474C0089520911401862F90E068
:1049E000820F911D8F3F910520F4620F6093140197
:1049F00003C08FEF80931401809114011F928F9355
:104A000080EA95E072C020911301862F90E0820F1A
:104A1000911D8F3F910520F4620F6093130103C035
:104A20008FEF80931301809113011F928F938EE873
:104A300095E05BC020911201862F90E0820F911DBE
:104A40008F3F910520F4620F6093120103C08FEF36
:104A500080931201809112011F928F938BE795E052
:104A600044C020911101862F90E0820F911D8F3F4D
:104A7000910520F4620F6093110103C08FEF8093C2
:104A80001101809111011F928F9386E695E02DC050
:104A900020911001862F90E0820F911D8F3F91058C
:104AA00020F4620F6093100103C08FEF8093100118
:104AB000809110011F928F938DE495E016C0209194
:104AC0000F01862F90E0820F911D8F3F910520F4FA
:104AD000620F60930F0103C08FEF80930F018091ED
:104AE0000F011F928F9382E395E09F938F930E9413
:104AF00034070F900F900F900F900895833081F13D
:104B000028F4813059F08230D1F00895853009F4CD
:104B100049C0B8F1863009F456C008958091140157
:104B2000681720F4861B8093140102C010921401B0
:104B3000809114011F928F9383E295E054C080917D
:104B40001301681720F4861B8093130102C0109292
:104B50001301809113011F928F9381E195E043C06F
:104B600080911201681720F4861B8093120102C005
:104B700010921201809112011F928F938EEF94E098
:104B800032C080911101681720F4861B80931101B7
:104B900002C010921101809111011F928F9389EE32
:104BA00094E021C080911001681720F4861B809347
:104BB000100102C010921001809110011F928F937A
:104BC00080ED94E010C080910F01681720F4861BDF
:104BD00080930F0102C010920F0180910F011F926C
:104BE0008F9385EB94E09F938F930E9434070F90EF
:104BF0000F900F900F900895CF93C82F1F928F930F
:104C00002AEB37E03F932F930E94340761E070E076
:104C100080E090E004C0660F771F881F991FCA9537
:104C2000D2F70E94A21B0F900F900F900F90CF9180
:104C30000C947317CF938B3109F409C208F049C063
:104C40008E3009F417C200F5873009F4E7C1A8F4E3
:104C5000863009F095C28091E201817F8E7F80933A
:104C6000E2018FEB97E00E949B0688E29CE00E94A5
:104C70009B0681E08093F201CFC1883009F45BC0CC
:104C80008B3009F4C5C17CC2813109F461C220F4C2
:104C9000803109F402C274C2863109F418C2893124
:104CA00009F06EC28CE99BE00E949B0687E79BE0BF
:104CB0000E949B068CE39BE00E949B068FE09BE09A
:104CC0000E949B068AEC9AE00E949B068CE99AE07F
:104CD000A1C1853309F44EC268F4873209F44AC28F
:104CE00028F48E3108F44CC28D5147C2893209F440
:104CF00041C246C2833438F48A3308F03DC2883357
:104D000009F486C13DC2833409F434C2883409F001
:104D100037C20E94731787E19CE00E949B069FEFB9
:104D200023ED80E3915020408040E1F700C0000077
:104D30000E94E31E71C18CE29CE00E949B0689EFF9
:104D400099E00E949B060E9401221F928F9386EF9A
:104D500099E09F938F930E94340784EF99E00E941B
:104D60009B060E94F821C82F81EE99E00E949B06C5
:104D70001F92CF932CED39E03F932F930E9434077D
:104D80008AED99E00E949B0680ED99E00E949B06C7
:104D90008C2F81701F928F932DEC39E03F932F93CE
:104DA0000E9434078BEC99E00E949B0681EC99E00D
:104DB0000E949B06C1FB882780F91F928F932EEBE0
:104DC00039E03F932F930E9434078CEB99E00E94C7
:104DD0009B0680EB99E00E949B06C2FB882780F926
:104DE0001F928F932DEA39E03F932F930E9434074F
:104DF0008BEA99E00E949B0682EA99E00E949B065A
:104E0000C3FBCC27C0F91F92CF938FE999E09F9302
:104E10008F930E9434078DE999E00E949B060E94BF
:104E20000A22C82F89E899E00E949B061F92CF931F
:104E300024E839E03F932F930E94340782E899E0F9
:104E40000E949B0689E699E00E949B068C2F817048
:104E50001F928F9326E639E03F932F930E943407E9
:104E60008DB79EB780960FB6F8949EBF0FBE8DBFCC
:104E700084E699E00E949B068DE499E00E949B06DF
:104E8000C1FB882780F91F928F932AE439E03F9372
:104E90002F930E94340788E499E00E949B0686E3E2
:104EA00099E00E949B06C2FB882780F91F928F938E
:104EB00023E339E03F932F930E94340781E399E085
:104EC0000E949B068FE199E00E949B06C3FB882706
:104ED00080F91F928F932CE139E03F932F930E942A
:104EE00034078AE199E00E949B0680E199E00E94E4
:104EF0009B06C4FB882780F91F928F932DE039E031
:104F00003F932F930E9434078BE099E00E949B0609
:104F100089EF98E00E949B06C5FB882780F91F92C5
:104F20008F9326EF38E03F932F930E94340784EF4E
:104F300098E00E949B0688ED98E00E949B06C6FBC5
:104F4000882780F91F928F9325ED38E03F932F93A8
:104F50000E94340783ED98E00E949B068BEC98E05A
:104F60000E949B06C7FBCC27C0F91F92CF9388EC09
:104F700098E09F938F930E94340786EC98E00E94FC
:104F80009B060E941322C82F8FEA98E00E949B067E
:104F90001F92CF932AEA38E03F932F930E94340761
:104FA0008DB79EB780960FB6F8949EBF0FBE8DBF8B
:104FB00088EA98E00E949B068EE998E00E949B0692
:104FC0008C2F81701F928F932BE938E03F932F93A2
:104FD0000E94340789E998E00E949B0680E998E0E6
:104FE0000E949B06C6951F92CF938DE898E09F93F1
:104FF0008F930E9434078BE898E00E949B068DB740
:105000009EB708960FB6F8949EBF0FBE8DBF04C022
:1050100086EE97E00E949B06C1E0B7C08091E20156
:10502000C82FC17080FF09C08AE09CE00E949B06E7
:105030008091E201817F8E7F44C08EEF9BE00E94D1
:105040009B068091E20181608093E201E5CF80912F
:10505000E20181FBCC27C0F991E0C927C0FB81F9AF
:105060008093E201CC2319F081EF9BE025C083EE11
:105070009BE0D0CF8091E20182FBCC27C0F991E088
:10508000C927C0FB82F98093E201CC2319F084ED9B
:105090009BE012C084EC9BE0BDCF8091E20183FBDA
:1050A000CC27C0F991E0C927C0FB83F98093E201C6
:1050B000CC2351F088EB9BE00E949B068091E2019B
:1050C00081608093E20161C08BEA9BE0A3CF8EE810
:1050D0009AE00E949B060E94A9101F928F9384E77A
:1050E0009AE09F938F930E94340780910B011F9247
:1050F0008F938DE59AE09F938F930E943407809160
:105100006F011F928F938AE49AE09F938F930E947E
:10511000340780910C011F928F9387E39AE09F934D
:105120008F930E9434070E94891E9F938F937F93D1
:105130006F9380E29AE09F938F930E9434078DB71C
:105140009EB746960FB6F8949EBF0FBE8DBF64CF34
:105150000E947317C0910C0181E0C827C0930C0115
:10516000CC2329F086E19AE00E949B060EC08BE0DA
:105170009AE050CF80E001C089530E94FC254CCFBB
:1051800089E09AE00E949B06C0E08C2FCF910895A1
:1051900080E0089580E00895CF93C82F8091F201B8
:1051A000813071F020F0823009F448C03FC1A091F5
:1051B0000D01B0910E018C91823209F039C107C006
:1051C000A0910D01B0910E018C91823249F48C2F87
:1051D0000E94C82881112FC08C2F0E941A262CC033
:1051E0008C2F0E94CA28811126C0C431E1F070F4CE
:1051F000CB3081F0C031D1F40E94C42482EB97E01F
:105200000E949B0682E08093F20115C0C93259F0DA
:10521000C83361F48FEB97E00E949B0686EB97E022
:105220000E949B0608C01092F20104C180EB97E037
:105230000E949B06FFC081E08170FEC0C43228F549
:10524000CE3108F0C1C0CB30A1F1D0F4C73009F0A5
:10525000D3C08EE18093140182E3809313018AE02E
:105260008093120184E18093110188E08093100102
:1052700088E280930F0186E596E00E949B06BFC0FE
:10528000C33149F1C431C1F0B7C0CB3409F4A9C06E
:1052900028F4C93289F0C83361F0AEC0C13509F4D1
:1052A0009EC0C23509F499C0CE3409F0A5C06AE0A9
:1052B0009EC00E94C424A3C08091F101882319F0EC
:1052C0001092F1019CC083E696E00E949B0681E06B
:1052D0008093F201B1C08DE396E00E949B068BE2C1
:1052E00096E00E949B06809114011F928F9388E2A2
:1052F00096E09F938F930E94340786E296E00E9487
:105300009B0684E196E00E949B06809113011F9208
:105310008F9381E196E09F938F930E9434078FE0F3
:1053200096E00E949B0680E096E00E949B0680919A
:1053300012011F928F938DEF95E09F938F930E94A0
:1053400034078BEF95E00E949B068AEE95E00E9461
:105350009B06809111011F928F9387EE95E09F939A
:105360008F930E94340785EE95E00E949B0680EDA6
:1053700095E00E949B06809110011F928F938DEC07
:1053800095E09F938F930E9434078BEC95E00E94E9
:105390009B0684EB95E00E949B0680910F011F9273
:1053A0008F9381EB95E09F938F930E9434078FEA50
:1053B00095E00E949B068DB79EB748960FB6F8946D
:1053C0009EBF0FBE8DBF1BC0CE51EC2FF0E0E25D43
:1053D000FE4F80818093F10112C061E003C061E063
:1053E00006C06AE08091F1010E94DB2408C0809130
:1053F000F1010E947E2503C084E596E013C08091F0
:10540000F101882369F01F928F938EE496E09F93B9
:105410008F930E9434070F900F900F900F9004C04D
:105420008BE496E00E949B0681E006C01092F20198
:1054300080E002C080E000CFCF9108950E94ED216E
:10544000811102C00E94CE210E941322809301028A
:1054500080FF02C0869501C080E00C94E80880912E
:105460000102982F969539F4817082608160809353
:1054700001020E9417228091E20180FF0FC08091FB
:10548000010286951F928F9389E79CE09F938F93EB
:105490000E9434070F900F900F900F90809101029F
:1054A00086950C94E80880910102982F969591F0CA
:1054B0009158990F8170892B809301028E7F91E022
:1054C00009F490E08091010290FB80F98093010241
:1054D0000E9417228091E20180FF0FC0809101029B
:1054E00086951F928F9381E69CE09F938F930E94F5
:1054F00034070F900F900F900F90809101028695C6
:105500000C94E80880910102982F909590FB80F907
:10551000809301020E9417228091E20180FF0FC058
:105520008091010281701F928F938BE49CE09F9386
:105530008F930E9434070F900F900F900F908091DF
:10554000010280FF02C0869501C080E00C94E8084B
:1055500030910102232F26952F5F2F77822F90E025
:10556000317002972CF4220F232B2093010202C0EA
:1055700030930102809101028E7F91E009F490E066
:105580008091010290FB80F9809301020E94172212
:105590008091E20180FF0FC08091010286951F92E9
:1055A0008F9387E39CE09F938F930E9434070F9023
:1055B0000F900F900F908091010286950C94E8084F
:1055C00020910102922F96959827990F822F817032
:1055D000892B809301028E7F91E009F490E0809105
:1055E000010290FB80F9809301020E9417228091B2
:1055F000010286950C94E80804D06894B1118DC01E
:10560000089570D088F09F5790F0B92F9927B7511F
:10561000A0F0D1F0660F771F881F991F1AF0BA9576
:10562000C9F712C0B13081F077D0B1E0089574C0ED
:10563000672F782F8827B85F39F0B93FCCF386956C
:1056400077956795B395D9F73EF4909580957095C9
:1056500061957F4F8F4F9F4F0895E89409C097FB46
:105660003EF490958095709561957F4F8F4F9F4F39
:105670009923A9F0F92F96E9BB279395F69587957D
:1056800077956795B795F111F8CFFAF4BB0F11F440
:1056900060FF1BC06F5F7F4F8F4F9F4F16C08823E7
:1056A00011F096E911C0772321F09EE8872F762F1D
:1056B00005C0662371F096E8862F70E060E02AF05E
:1056C0009A95660F771F881FDAF7880F969587954A
:1056D00097F9089557FD9058440F551F59F05F3FB3
:1056E00071F04795880F97FB991F61F09F3F79F004
:1056F00087950895121613061406551FF2CF469586
:10570000F1DF08C0161617061806991FF1CF869507
:105710007105610508940895E894BB2766277727EB
:10572000CB0197F908950BD078C069D028F06ED0DE
:1057300018F0952309F05AC05FC01124EECFCADFDC
:10574000A0F3959FD1F3950F50E0551F629FF00194
:10575000729FBB27F00DB11D639FAA27F00DB11DED
:10576000AA1F649F6627B00DA11D661F829F222776
:10577000B00DA11D621F739FB00DA11D621F839FFD
:10578000A00D611D221F749F3327A00D611D231FD3
:10579000849F600D211D822F762F6A2F11249F5721
:1057A00050408AF0E1F088234AF0EE0FFF1FBB1F44
:1057B000661F771F881F91505040A9F79E3F5105E3
:1057C00070F014C0AACF5F3FECF3983EDCF38695EF
:1057D00077956795B795F795E7959F5FC1F7FE2B8E
:1057E000880F911D9695879597F9089597F99F676A
:1057F00080E870E060E008959FEF80EC0895002459
:105800000A941616170618060906089500240A9425
:1058100012161306140605060895092E0394000CAB
:1058200011F4882352F0BB0F40F4BF2B11F460FF3A
:1058300004C06F5F7F4F8F4F9F4F0895991B79E092
:1058400004C0991F961708F0961B881F7A95C9F710
:105850008095089597FB072E16F4009407D077FDE6
:1058600009D00E94442C07FC05D03EF49095819508
:105870009F4F0895709561957F4F0895EE0FFF1F1C
:105880000590F491E02D0994AA1BBB1B51E107C0C0
:10589000AA1FBB1FA617B70710F0A61BB70B881FC0
:1058A000991F5A95A9F780959095BC01CD0108954F
:1058B000F999FECF92BD81BDF89A992780B50895D8
:1058C000A8E1B0E042E050E00C947B2C262FF9993F
:1058D000FECF1FBA92BD81BD20BD0FB6F894FA9AD3
:1058E000F99A0FBE019608950E94662C272F0C94FA
:1058F000672CDC01CB01FC01F999FECF06C0F2BD9B
:10590000E1BDF89A319600B40D9241505040B8F77D
:065910000895F894FFCF9A
:1059160005F608E709C40990095D090101C00128D7
:1059260008140A321E404D36223997034A031403DF
:10593600F202B9022C0245025E02770297020102C8
:0859460003040506070809002F
:00000001FF
